:020000040000FA
:02000000DB2CF7
:040002000034003492
:080008000900A530A000A00BC7
:1000100007280800A530A000FF30A100A00B0E2883
:10002000A10B0E28080003138316083086008801F0
:1000300085010313831286018801080020308500A2
:1000400008000430850008000830850008001030E2
:10005000850008003F30880008000630880008004E
:100060005B30880008004F30880008006630880048
:1000700008006D30880008007D30880008002730B7
:10008000880008007F30880008006730880008007A
:100090001E202708093CA300A303A30F50288F2884
:1000A0002708083CA300A303A30F5728912827087B
:1000B000073CA300A303A30F5E2893282708063C50
:1000C000A300A303A30F652895282708053CA300D8
:1000D000A303A30F6C2897282708043CA300A303BD
:1000E000A30F732899282708033CA300A303A30F99
:1000F0007A289B282708023CA300A303A30F81288A
:100100009D282708013CA300A303A30F88289F284C
:100110002708003CA300A303A30FA328A128452080
:10012000A3284220A3283F20A3283C20A32839202D
:10013000A3283620A3283320A3283020A3282D204D
:10014000A3282A20A32821202808093CA300A303D0
:10015000A30FAB28EA282808083CA300A303A30F99
:10016000B228EC282808073CA300A303A30FB92852
:10017000EE282808063CA300A303A30FC028F028FC
:100180002808053CA300A303A30FC728F2282808CA
:10019000043CA300A303A30FCE28F4282808033CA3
:1001A000A300A303A30FD528F6282808023CA30028
:1001B000A303A30FDC28F8282808013CA300A3030D
:1001C000A30FE328FA282808003CA300A303A30FE9
:1001D000FE28FC284520FE284220FE283F20FE283D
:1001E0003C20FE283920FE283620FE283320FE2819
:1001F0003020FE282D20FE282A20FE282420290831
:10020000093CA300A303A30F062945292908083C9C
:10021000A300A303A30F0D2947292908073CA30026
:10022000A303A30F142949292908063CA300A3030B
:10023000A30F1B294B292908053CA300A303A30FE7
:1002400022294D292908043CA300A303A30F29292F
:100250004F292908033CA300A303A30F30295129E8
:100260002908023CA300A303A30F37295329290817
:10027000013CA300A303A30F3E2955292908003CF4
:10028000A300A303A30F5929572945205929422028
:1002900059293F2059293C205929392059293620EC
:1002A000592933205929302059292D2059292A200C
:1002B000592927202A08093CA300A303A30F612979
:1002C000A0292A08083CA300A303A30F6829A22998
:1002D0002A08073CA300A303A30F6F29A4292A0817
:1002E000063CA300A303A30F7629A6292A08053CF0
:1002F000A300A303A30F7D29A8292A08043CA30077
:10030000A303A30F8429AA292A08033CA300A3035B
:10031000A30F8B29AC292A08023CA300A303A30F37
:100320009229AE292A08013CA300A303A30F99290F
:10033000B0292A08003CA300A303A30FB429B229C3
:100340004520B4294220B4293F20B4293C20B429B7
:100350003920B4293620B4293320B4293020B429D7
:100360002D20B4292A20B4290800031383168601FE
:100370000F3088000313831200308600080000301D
:10038000AB00881CFA290520081DF1290520881DCD
:10039000E829052006148610081CE5290520881C7C
:1003A000FD290520081DF4290520881DEB290520BD
:1003B00086140611881DEE290520081DF729052041
:1003C000881C002A05200615BF290030AB00032A2F
:1003D0000130AB00032A0230AB00032A0330AB002C
:1003E000032A0430AB00032A0530AB00032A063091
:1003F000AB00032A0730AB00032A0830AB00032A06
:100400000930AB00032A0A200A2008002D082F0714
:10041000AA002A080A3CA300A303A30F102A482A13
:100420002A080B3CA300A303A30F172A4C2A2A086F
:100430000C3CA300A303A30F1E2A502A2A080D3C3C
:10044000A300A303A30F252A542A2A080E3CA300C5
:10045000A303A30F2C2A582A2A080F3CA300A303A6
:10046000A30F332A5C2A2A08103CA300A303A30F7E
:100470003A2A602A2A08113CA300A303A30F412AA9
:10048000642A2A08123CA300A303A30F6C2A682A3B
:100490000030AA00A90A6C2A0130AA00A90A6C2A15
:1004A0000230AA00A90A6C2A0330AA00A90A6C2A01
:1004B0000430AA00A90A6C2A0530AA00A90A6C2AED
:1004C0000630AA00A90A6C2A0730AA00A90A6C2AD9
:1004D0000830AA00A90A6C2A2C082E072907A900AF
:1004E00029080A3CA300A303A30F772AB62A2908E8
:1004F0000B3CA300A303A30F7E2ABA2A29080C3CB5
:10050000A300A303A30F852ABE2A29080D3CA3003C
:10051000A303A30F8C2AC22A29080E3CA300A3031D
:10052000A30F932AC62A29080F3CA300A303A30FF5
:100530009A2ACA2A2908103CA300A303A30FA12AC0
:10054000CE2A2908113CA300A303A30FA82AD22A6C
:100550002908123CA300A303A30FAF2AD62A290817
:10056000133CA300A303A30FDE2ADA2A0030A9005C
:10057000A80ADE2A0130A900A80ADE2A0230A90052
:10058000A80ADE2A0330A900A80ADE2A0430A9003E
:10059000A80ADE2A0530A900A80ADE2A0630A9002A
:1005A000A80ADE2A0730A900A80ADE2A0830A90016
:1005B000A80ADE2A0930A900A80ADE2A08002D08A8
:1005C000003C0319EF222F082D02AA002E082C024E
:1005D000A90008002F08AA002E08A90008002C086E
:1005E000003C0319EA2A2C08013CAC002D080A3E05
:1005F000AD0008002D08AF0503190A232D08AE052C
:10060000031976232C08AF050319ED232C08AE053A
:10061000031964242F08A6002D082A07AA002A0817
:100620000A3CA300A303A30F162B4E2B2A080B3C56
:10063000A300A303A30F1D2B522B2A080C3CA300DD
:10064000A303A30F242B562B2A080D3CA300A303BE
:10065000A30F2B2B5A2B2A080E3CA300A303A30F96
:10066000322B5E2B2A080F3CA300A303A30F392BC8
:10067000622B2A08103CA300A303A30F402B662B78
:100680002A08113CA300A303A30F472B6A2B2A08B7
:10069000123CA300A303A30F722B6E2B0030AA0001
:1006A000A90A722B0130AA00A90A722B0230AA00F3
:1006B000A90A722B0330AA00A90A722B0430AA00DF
:1006C000A90A722B0530AA00A90A722B0630AA00CB
:1006D000A90A722B0730AA00A90A722B0830AA00B7
:1006E000A90A722BA60303190C2B08002E08A500DB
:1006F0002D082907A90029080A3CA300A303A30F7A
:10070000822BC12B29080B3CA300A303A30F892B29
:10071000C52B29080C3CA300A303A30F902BC92BC6
:1007200029080D3CA300A303A30F972BCD2B290869
:100730000E3CA300A303A30F9E2BD12B29080F3C33
:10074000A300A303A30FA52BD52B2908103CA300BE
:10075000A303A30FAC2BD92B2908113CA300A3039F
:10076000A30FB32BDD2B2908123CA300A303A30F77
:10077000BA2BE12B2908133CA300A303A30FE92BF9
:10078000E52B0030A900A80AE92B0130A900A80A2E
:10079000E92B0230A900A80AE92B0330A900A80A16
:1007A000E92B0430A900A80AE92B0530A900A80A02
:1007B000E92B0630A900A80AE92B0730A900A80AEE
:1007C000E92B0830A900A80AE92B0930A900A80ADA
:1007D000E92BA5030319EF2B08002F08A6002C080E
:1007E0002907A90029080A3CA300A303A30FF92B9A
:1007F000382C29080B3CA300A303A30F002C3C2C8E
:1008000029080C3CA300A303A30F072C402C2908A4
:100810000D3CA300A303A30F0E2C442C29080E3C6F
:10082000A300A303A30F152C482C29080F3CA300F9
:10083000A303A30F1C2C4C2C2908103CA300A303DA
:10084000A30F232C502C2908113CA300A303A30FB2
:100850002A2C542C2908123CA300A303A30F312CEB
:10086000582C2908133CA300A303A30F602C5C2C75
:100870000030A900A80A602C0130A900A80A602C49
:100880000230A900A80A602C0330A900A80A602C35
:100890000430A900A80A602C0530A900A80A602C21
:1008A0000630A900A80A602C0730A900A80A602C0D
:1008B0000830A900A80A602C0930A900A80A602CF9
:1008C000A6030319EF2B08002E08A5002C08280703
:1008D000A80028080A3CA300A303A30F702CAF2C88
:1008E00028080B3CA300A303A30F772CB32C2808E4
:1008F0000C3CA300A303A30F7E2CB72C28080D3CAF
:10090000A300A303A30F852CBB2C28080E3CA30037
:10091000A303A30F8C2CBF2C28080F3CA300A30318
:10092000A30F932CC32C2808103CA300A303A30FF0
:100930009A2CC72C2808113CA300A303A30FA12CB9
:10094000CB2C2808123CA300A303A30FA82CCF2C68
:100950002808133CA300A303A30FD72CD32C0030EB
:10096000A800A70AD72C0130A800A70AD72C02306C
:10097000A800A70AD72C0330A800A70AD72C043058
:10098000A800A70AD72C0530A800A70AD72C063044
:10099000A800A70AD72C0730A800A70AD72C083030
:1009A000A800A70AD72C0930A800A70AD72CA503AE
:0609B0000319662C08008B
:0A09B6000030AA00A900A800A70065
:1009C000B521BF212B08AC00BF212B08AD00BF21F2
:1009D0002B08AE00BF212B08AF00FA2213204820BD
:0209E000EF2CFA
:02400E003A3F37
:00000001FF
